:100000000C9436000C945E000C945E000C945E0020
:100010000C945E000C945E000C94AE050C945E0093
:100020000C945E000C945E000C945E000C945E00D8
:100030000C945E000C945E000C945E000C945E00C8
:100040000C94BF040C945E000C945E000C945E0053
:100050000C945E000C945E000C945E000C945E00A8
:100060000C945E000C945E00720BAF0B11241FBE4B
:10007000CFEFD8E0DEBFCDBF14E0A0E0B1E0E6E610
:10008000FDE102C005900D92A83BB107D9F725E02C
:10009000A8EBB4E001C01D92AA32B207E1F710E06C
:1000A000C6E3D0E004C02197FE010E94360CC433A1
:1000B000D107C9F70E94320B0C94B10E0C940000CA
:1000C0009091C00095FFFCCF8093C6000895CF9318
:1000D000DF93EC01209731F08991882319F00E9479
:1000E0006000F8CFDF91CF910895FC016623D1F035
:1000F000A895809160008064809360008091C0002A
:1001000087FFF4CF8091C00087FFFCCF8091C600AD
:100110008A3019F4108281E008958B3119F08193AF
:100120006150E4CF80E0089584E791E00C9467008B
:10013000CF92DF92EF92FF92CF93DF9342E150E0B4
:1001400060E070E08EEB94E00E94890E81E692E020
:100150000E946700CEEBD4E0288139814A815B811F
:100160006DE672E08BEE94E00E940C0B2C813D81D9
:100170004E815F8162E872E08BEE94E00E940C0B8E
:10018000288539854A855B8568E872E08BEE94E0C6
:100190000E940C0B2C853D854E855F856EE872E0D4
:1001A0008BEE94E00E940C0BC988D12CF12CE12C31
:1001B00084E992E00E946700B701A6018BEE94E00B
:1001C0000E94780A8AE00E946000C888D12CF12C35
:1001D000E12C8BEA92E00E946700B701A6018BEE4A
:1001E00094E00E94780A8AE00E9460008BE193E02C
:1001F000DF91CF91FF90EF90DF90CF900C9467004C
:1002000042E150E060E070E08EEB94E00C94990ED7
:10021000009719F061110C94750080E008954F92D9
:100220005F926F927F928F929F92AF92BF92CF9286
:10023000DF92EF92FF920F931F93CF93DF93CDB78F
:10024000DEB760970FB6F894DEBF0FBECDBF8C014E
:10025000DC011D921D921D921C92139760E1CE014C
:1002600001960E947500D82E882309F45FC0FE0114
:1002700031967F01F0E0812C912C5401C12CD701E3
:10028000ED917D01EE2311F1ED32F1F0EE3211F43A
:10029000F1E0F5CF80ED8E0F8A3008F05FC0AAE064
:1002A000B0E0A50194010E94F50B2E2F2053330BD3
:1002B0004901330FAA08BB08860E971EA81EB91E57
:1002C000FF23E9F2FF5FDBCFCD2CD9CF412C512C9E
:1002D00032014394F23050F0F150AAE0B0E0A301B3
:1002E00092010E94F50B2B013C01F4CFCC2041F090
:1002F000B094A09490948094811C911CA11CB11C7A
:10030000C501B4010E94670D4B015C01C301B2013C
:100310000E94670D9B01AC01C501B4010E94BD0C98
:10032000D8016D937D938D939C9313978D2D60963B
:100330000FB6F894DEBF0FBECDBFDF91CF911F91F6
:100340000F91FF90EF90DF90CF90BF90AF909F9074
:100350008F907F906F905F904F900895D12CE6CF53
:10036000EF92FF920F931F93CF93DF9300D000D0B3
:10037000CDB7DEB77C018B018BE193E00E94670073
:10038000C7010E9467008BE193E00E946700CE01E5
:1003900001960E940F01882369F089819A81AB81BF
:1003A000BC81F80180839183A283B3830E94000102
:1003B0000E9498000F900F900F900F90DF91CF91B7
:1003C0001F910F91FF90EF900895EF92FF920F937E
:1003D0001F93CF93DF9300D000D0CDB7DEB77C0161
:1003E0008B018BE193E00E946700C7010E946700C8
:1003F0008BE193E00E946700CE0101960E940F01FD
:10040000882361F069817A818B819C810E94360DFD
:10041000F80160830E9400010E9498000F900F90E5
:100420000F900F90DF91CF911F910F91FF90EF9060
:1004300008952F923F924F925F926F927F928F9288
:100440009F92AF92BF92CF92DF92EF92FF920F9363
:100450001F93CF93DF93CDB7DEB728970FB6F894ED
:10046000DEBF0FBECDBF80910A05811120C081E0A3
:1004700080930A058091C00087FF14C08091C0005E
:1004800087FFFCCF8091C600803509F464C2A0F5D7
:10049000843409F46AC220F58F3309F43FC28334EF
:1004A00009F468C280910A05815080930A05289654
:1004B0000FB6F894DEBF0FBECDBFDF91CF911F9175
:1004C0000F91FF90EF90DF90CF90BF90AF909F90F3
:1004D0008F907F906F905F904F903F902F900895F6
:1004E000893409F43DC28F34E9F66FEC74E088EB8F
:1004F00093E00E94E501D6CF8736E9F060F48435B9
:1005000009F422C2833671F68091CE048093D00420
:1005100084E393E0FDC1833709F4FDC1843709F416
:1005200000C28F3609F0BECF8091CF048093D004F3
:1005300087E293E0EDC181E89FEF909327058093D8
:1005400026058FE790E090932905809328058091F8
:10055000CA049091CB04A091CC04B091CD044091F9
:10056000C6045091C7046091C8047091C9040091F9
:10057000C2041091C3042091C4043091C5040093B7
:100580000E0510930F05209310053093110540932D
:10059000120550931305609314057093150580930D
:1005A000160590931705A0931805B093190510929E
:1005B0001E0510921F051092200510922105109221
:1005C0001A0510921B0510921C0510921D0584EC53
:1005D00092E00E946700CE0101960E940F018823DD
:1005E00009F460CF88EB94E00E94260B89819A8100
:1005F000AB81BC818093220590932305A0932405B1
:10060000B093250510920105109202051092030582
:100610001092040587ED92E00E94670082EE92E05E
:100620000E9467004FEF5FEFBA018091C00087FD25
:1006300063C18091010590910205A0910305B091DD
:1006400004058D839E83AF83B88784179507A6071B
:10065000B70709F41EC12091FD043091FE044091BA
:10066000FF045091000529833A834B835C8360919A
:1006700022057091230580912405909125050E9403
:100680004B0C6B017C0160910B05062E000C770B67
:10069000880B990B0E94670DA70196010E941C0E02
:1006A00020E030E0A9010E94B80C1816F4F0209167
:1006B0001205309113054091140550911505C7019D
:1006C000B6010E941C0E20911E0530911F0540911D
:1006D0002005509121050E944C0C60931E057093DB
:1006E0001F05809320059093210540901E05509092
:1006F0001F05609020057090210520902605309000
:100700002705B101032C000C880B990B0E94670D83
:100710004B015C010091280510912905AC019B015A
:10072000C301B2010E94170E87FDBAC0B801012EA5
:10073000000C880B990B0E94670D9B01AC01C30153
:10074000B2010E94B80C18160CF4AAC010920B0546
:1007500020911A0530911B0540911C0550911D05F3
:10076000C701B6010E944B0C4B015C01C0921A05F7
:10077000D0921B05E0921C05F0921D0520910E05FC
:1007800030910F054091100550911105C701B60138
:100790000E941C0E20911E0530911F0540912005DE
:1007A000509121050E944C0C6B017C012091160593
:1007B000309117054091180550911905C501B401F4
:1007C0000E941C0E9B01AC01C701B6010E944C0C9B
:1007D0000E942F0D061717070CF489C070930D05A2
:1007E00060930C0580910C0590910D058215930581
:1007F00024F430920D0520920C0500910C05109107
:100800000D05802F17FD80E08093BA044D815E8135
:100810006F8178858BEE94E00E94780A8CE20E94CA
:10082000600040912205509123056091240570914C
:1008300025058BEE94E00E94B30A8CE20E946000D2
:1008400049815A816B817C818BEE94E00E94B30ACE
:100850008CE20E946000A801110F660B770B8BEEF3
:1008600094E00E94780A8CE20E94600040911E058C
:1008700050911F0560912005709121058BEE94E049
:100880000E94B30A8AE00E9460004D815E816F8100
:100890007885A89580916000806480936000C5CEC3
:1008A000A5019401C301B2010E94B80C87FF0CC0DE
:1008B00080921E0590921F05A0922005B0922105FE
:1008C0009FEF90930B0544CFB801012E000C880BCD
:1008D000990B0E94670D60931E0570931F0580930E
:1008E000200590932105A1E0A0930B0531CF109333
:1008F0000D0500930C0576CF88EB94E00E94260B43
:100900008091C00087FFFCCF8091C6008DE193E00D
:100910000E946700C7CD0E949800C4CD0E94940039
:10092000C1CD83E493E00E9467004091FD045091A3
:10093000FE046091FF04709100058BEE94E00E942C
:10094000B30A8BE193E0E4CF6EEB74E08BE593E0C8
:100950000E94B001A7CD62EC74E08CE793E0F8CF81
:1009600066EC74E080E993E0F3CF6AEC74E084EA2B
:1009700093E0EECF6EEC74E083ED93E0BACD1F927E
:100980000F920FB60F9211242F933F934F935F93C3
:100990006F937F938F939F93AF93BF93EF93FF9347
:1009A00082E086BD809108058F5F809308058530C1
:1009B00028F18091B40081508093B2005091B4002E
:1009C0008EEF851B4091D004841750F491E0951B65
:1009D000842F941708F4892F9EEF981B9093B400EE
:1009E0009091D004981740F48350981708F4982FEA
:1009F0008EEF891B8093B400109208058091090541
:100A00008F5F809309058C3308F45AC02D9828987D
:100A100080E170E060E02D9A660F771F93B192FB42
:100A2000222720F930E0622B732B2D98815099F703
:100A3000289A7093F1046093F00483E076956795AB
:100A40008A95E1F78091FC04E82FF0E0EE0FFF1F9C
:100A5000EC50FB4F2091F2043091F304408151811E
:100A6000241B350B71836083620F731F7093F30433
:100A70006093F2048F5F83708093FC047695679592
:100A80007695679590E080E00E94650D20E030E06B
:100A900040E85EE30E941C0E2091BE043091BF042A
:100AA0004091C0045091C1040E944C0C6093FD041D
:100AB0007093FE048093FF04909300051092090543
:100AC000809107058F5F80930705882331F088EBBD
:100AD00094E00E94520A10920705809105059091BA
:100AE00006050196863F910508F5909306058093CB
:100AF000050563B162708CEE94E00E94670A69B1EB
:100B000064708EEE94E00E94670AFF91EF91BF91AE
:100B1000AF919F918F917F916F915F914F913F9195
:100B20002F910F900FBE0F901F90189510920605F1
:100B3000109205058091010590910205A091030591
:100B4000B09104050196A11DB11D809301059093FC
:100B50000205A0930305B0930405CBCF1F920F921B
:100B60000FB60F9211240F900FBE0F901F90189583
:100B70009091C00095FFFCCF8093C6000895CF935D
:100B8000DF93EC018991882321F00E94B80520971A
:100B9000C9F7DF91CF9108955D9A8091CF0480933A
:100BA000D00408955D988091CE048093D004089578
:100BB0008F929F92AF92BF92CF92DF92EF92FF926D
:100BC0000F931F93CF93DF93EC017E836D83FB0123
:100BD0008081918198878F830F811885F8016081CA
:100BE00071816F3F760791F483E0888386EF93E00D
:100BF000DF91CF911F910F91FF90EF90DF90CF90F9
:100C0000BF90AF909F908F900C94BF056E3F8FEF79
:100C1000780751F40E94CC058DE094E00E94BF0556
:100C20008F8198850496D6CF6D3FEFEF7E0729F42C
:100C30000E94D2058CE194E0F1CF161617062CF035
:100C40000C5F1F4F18870F83C7CF072E000C880B30
:100C5000990B0E94670D6A877B878C879D87C09060
:100C6000FD04D090FE04E090FF04F0900005CA8AD5
:100C7000DB8AEC8AFD8AF80102811381A7019601C3
:100C80000E944B0C4B015C010115110559F58E8634
:100C90009F86A88AB98AC0922205D0922305E09245
:100CA0002405F092250510921E0510921F05109242
:100CB00020051092210510921A0510921B05109222
:100CC0001C0510921D05198E188EDF91CF911F9172
:100CD0000F91FF90EF90DF90CF90BF90AF909F90DB
:100CE0008F900895B801110F880B990B0E94670D22
:100CF0009B01AC01C501B4010E94BD0C6E877F87CA
:100D0000888B998BC8CF8F929F92AF92BF92CF92D0
:100D1000DF92EF92FF920F931F93CF93DF93EC013B
:100D2000EF81F88522813381888D998D8217930711
:100D300044F52E853F85488959896A897B898C8944
:100D40009D890E944C0C6A8B7B8B8C8B9D8B609356
:100D50002205709323058093240590932505888DA3
:100D6000998D0196998F888FDF91CF911F910F9167
:100D7000FF90EF90DF90CF90BF90AF909F908F90BB
:100D80000895C090FD04D090FE04E090FF04F09020
:100D900000058A859B85AC85BD858093220590934F
:100DA0002305A0932405B09325058A849B84AC84F5
:100DB000BD848A8A9B8AAC8ABD8A20E030E0A90182
:100DC0006E857F85888999890E94170EA7019601F3
:100DD00087FD68C0C501B4010E94B80C18160CF458
:100DE000BECF0F811885C801049698878F83F801BC
:100DF000648175816F3F760791F483E088838BE28D
:100E000094E0DF91CF911F910F91FF90EF90DF90D1
:100E1000CF90BF90AF909F908F900C94BF056E3F86
:100E20008FEF780739F40E94CC058DE094E00E94A2
:100E3000BF05D7CF6D3FEFEF7E0729F40E94D205A3
:100E40008CE194E0F4CF161617065CF6072E000C22
:100E5000880B990B0E94670D4B015C012A853B852D
:100E60004C855D850E94B80C811147C01E861F8687
:100E7000188A198A198E188E10921E0510921F0555
:100E8000109220051092210510921A0510921B0550
:100E900010921C0510921D0562CFCE86DF86E88A6F
:100EA000F98AE8CFC501B4010E94170E87FD57CF1C
:100EB0000F811885C801049698878F83F801648193
:100EC00075816F3F760709F498CF6E3F8FEF7807F3
:100ED00039F40E94CC058DE094E00E94BF05E8CF74
:100EE0006D3FEFEF7E0729F40E94D2058CE194E07C
:100EF000F4CF16161706E4F6A9CF8A869B86AC8631
:100F0000BD86F80106811781A7019601C501B401CC
:100F10000E944B0C6B017C010115110509F4BDCF3A
:100F2000B801110F880B990B0E94670D9B01AC0152
:100F3000C701B6010E94BD0C6E877F87888B998B95
:100F400099CFFC0183E080838FEF9FEF92838183B1
:100F500014821382168215821186128613861486D5
:100F6000158616861786108A118A128A138A148AA1
:100F7000158A08952F923F924F925F926F927F92BF
:100F80008F929F92AF92BF92CF92DF92EF92FF9299
:100F90000F931F93CF93DF9300D000D000D0CDB735
:100FA000DEB79E838D83DC018C91823009F4E6C02C
:100FB00038F5882309F459C0813009F473C0809151
:100FC000010590910205ED81FE8192838183269631
:100FD0000FB6F894DEBF0FBECDBFDF91CF911F914A
:100FE0000F91FF90EF90DF90CF90BF90AF909F90C8
:100FF0008F907F906F905F904F903F902F900895CB
:10100000843009F445C218F18530C9F6ED81FE81BE
:1010100081819281B0E0A0E04091010550910205EC
:10102000609103057091040584179507A607B7071B
:1010300021F08BB190E189278BB98091F00482FD7A
:10104000BECF87EA94E00E94BF0583E013C08DE124
:1010500093E00E94BF0588EB94E00E94260B10925B
:10106000EF04ED81FE811082AACF8091F00482FF0F
:1010700005C084E0AD81BE818C93A1CF8091EC044A
:1010800081110EC05C9A8091EF04882309F497CFF8
:1010900081508093EF0481E0ED81FE8180838FCFCA
:1010A0005C98F1CF81E89FEF909327058093260508
:1010B0008FE790E090932905809328058091CA04DA
:1010C0009091CB04A091CC04B091CD044091C60482
:1010D0005091C7046091C8047091C9040091C20482
:1010E0001091C3042091C4043091C50400930E05EF
:1010F00010930F05209310053093110540931205AE
:10110000509313056093140570931505809316058D
:1011100090931705A0931805B09319058091EC04DE
:10112000811120C08FE394E00E94BF0560E071E070
:101130008D819E810E94D8055C9A88ED92E00E9484
:10114000BF0584E694E00E94BF051092010510924D
:10115000020510920305109204055F9A0E94D205C1
:1011600082E088CF83E594E00E94BF0566E071E0ED
:101170008D819E810E94D8055C98DFCF8091F0041C
:1011800082FD77CF8091EF04882339F081508093DE
:10119000EF0483E0ED81FE818083AD81BE811196F5
:1011A0008D919C91B0E0A0E0409101055091020525
:1011B000609103057091040584179507A607B7078A
:1011C00009F4FDCE20E030E0A901ED81FE816285C9
:1011D0007385848595850E94170E87FDF0CE8091DA
:1011E000FD049091FE04A091FF04B0910005898355
:1011F0009A83AB83BC839C01AD0160912205709101
:10120000230580912405909125050E944B0C6B01CC
:101210007C0160910B05062E000C770B880B990B57
:101220000E94670DA70196010E941C0E20E030E08D
:10123000A9010E94B80C1816F4F020911205309103
:1012400013054091140550911505C701B6010E9480
:101250001C0E20911E0530911F05409120055091D4
:1012600021050E944C0C60931E0570931F0580930E
:1012700020059093210540901E0550901F05609019
:101280002005709021052090260530902705B1019A
:10129000032C000C880B990B0E94670D4B015C011D
:1012A0000091280510912905AC019B01C301B201F1
:1012B0000E94170E87FDBFC0B801012E000C880BDD
:1012C000990B0E94670D9B01AC01C301B2010E9402
:1012D000B80C18160CF4AFC010920B0520911A052B
:1012E00030911B0540911C0550911D05C701B601A9
:1012F0000E944B0C4B015C01C0921A05D0921B0559
:10130000E0921C05F0921D0520910E0530910F050D
:101310004091100550911105C701B6010E941C0EA5
:1013200020911E0530911F05409120055091210507
:101330000E944C0C6B017C01209116053091170521
:101340004091180550911905C501B4010E941C0E69
:101350009B01AC01C701B6010E944C0C0E942F0DED
:10136000061717070CF48CC070930D0560930C05DD
:1013700080910C0590910D058215930524F430920F
:101380000D0520920C0580910C0590910D05AD8105
:10139000BE8114969C938E93139797FD76C080938D
:1013A000BA048D819E810E9483064091010550916F
:1013B000020560910305709104058BEE94E00E9494
:1013C000780A8CE20E94B805ED81FE814285538542
:1013D000648575858BEE94E00E94B30A8CE20E94CE
:1013E000B805AD81BE8152964D915D916D917C9114
:1013F00055978BEE94E00E94B30A8CE20E94B805E8
:1014000049815A816B817C818BEE94E00E94B30A02
:101410008CE20E94B805ED81FE8143815481052E46
:10142000000C660B770B8BEE94E00E94780A8AE042
:101430000E94B805C4CDA5019401C301B2010E9468
:10144000B80C87FF0CC080921E0590921F05A092D9
:101450002005B09221058FEF80930B053FCFB80197
:10146000012E000C880B990B0E94670D60931E05DE
:1014700070931F05809320059093210581E0ECCFA8
:1014800010930D0500930C0573CF1092BA0489CF09
:101490008FE994E00E94BF0588EB94E00E94260B40
:1014A00085E0E8CDFC0193818481891770F0848107
:1014B000882359F05E9A83818F5F8383838187FFBE
:1014C00003C082818483138208955E98F4CFFC0167
:1014D000208130E0220F331F91E0611101C090E0C4
:1014E000922B9083903F19F481818F5F81830895BF
:1014F000CF92DF92EF92FF92CF93DF93EC016A01DC
:101500007B01F7FE0BC08DE20E946000F094E09436
:10151000D094C094C11CD11CE11CF11C8AE0C816F7
:10152000D104E104F1046CF0C701B6012AE030E017
:1015300040E050E00E94D60BBA01A901CE010E9402
:10154000780AC701B6012AE030E040E050E00E948E
:10155000D60B80E3860FDF91CF91FF90EF90DF9065
:10156000CF900C946000CF92DF92EF92FF92CF93D6
:10157000DF93EC016A017B01CB01BA010E942F0DC0
:10158000AB01BC01CE010E94780A20E030E0A90145
:10159000C701B6010E94B80C87FF09C0A7019601D8
:1015A00060E070E0CB010E944B0C6B017C018EE28D
:1015B0000E946000C701B6010E942F0D0E94670DB6
:1015C0009B01AC01C701B6010E944B0C20E030E04A
:1015D0004AE754E40E941C0E0E942F0DCB0164E6E2
:1015E00070E00E94C20B7C0180E3860F0E946000C5
:1015F000C7016AE070E00E94C20BC82F80E3860F2B
:101600000E94600080E38C0FDF91CF91FF90EF90FC
:10161000DF90CF900C946000CF92DF92EF92FF9218
:10162000CF93DF93EC01CB0169017A010E9467003F
:10163000B701A601CE010E94B30A8AE0DF91CF91E3
:10164000FF90EF90DF90CF900C946000FC0112822D
:10165000148213825E985D985F988091CE04809387
:10166000D004089514BE15BE8FE387B998EF9AB9D8
:1016700099E294B988B984E18BB98FE185B983B7D0
:10168000817F83BF83B7816083BF80916000886161
:101690008093600088EE8093600084E085BD81E0E7
:1016A00080936E0051990DC0519A589A1092C500BE
:1016B00089E18093C40088E18093C1008EE080932B
:1016C000C2000E94980078948895A8958091600047
:1016D00080648093600081ED94E00E94BA070E94CC
:1016E0001902F2CFE0EFF4E0118210821582148229
:1016F000178216821186108613861286148613822C
:101700001282158616861786108AEEEEF4E08FEFA9
:1017100080831182ECEEF4E08083118281ED94E00D
:101720000E94A107E1EBF0E010821092B20010924B
:10173000B30083E38093B0008CE0808389EB8093D7
:10174000D00485E48093B400E8EBF4E084EF93E008
:101750009183808312821482138215820895EBE0B4
:10176000F5E080E090E0A0E2B1E483839483A58378
:10177000B683178210861186128613861486158604
:101780001686089597FB072E16F4009407D077FD70
:1017900009D00E94000C07FC05D03EF4909581957D
:1017A0009F4F0895709561957F4F0895052E97FB83
:1017B0001EF400940E94ED0B57FD07D00E94140CFC
:1017C00007FC03D04EF40C94ED0B509540953095EA
:1017D00021953F4F4F4F5F4F08959095809570959D
:1017E00061957F4F8F4F9F4F08950E943C0CA59F9E
:1017F000900DB49F900DA49F800D911D112408950C
:10180000AA1BBB1B51E107C0AA1FBB1FA617B70726
:1018100010F0A61BB70B881F991F5A95A9F7809542
:101820009095BC01CD010895A1E21A2EAA1BBB1B05
:10183000FD010DC0AA1FBB1FEE1FFF1FA217B3079C
:10184000E407F50720F0A21BB30BE40BF50B661FB2
:10185000771F881F991F1A9469F760957095809576
:1018600090959B01AC01BD01CF010895EE0FFF1FC4
:101870000590F491E02D0994A29FB001B39FC0019F
:10188000A39F700D811D1124911DB29F700D811DAC
:101890001124911D08955058BB27AA270E94630C5C
:1018A0000C94DD0D0E94CF0D38F00E94D60D20F073
:1018B00039F49F3F19F426F40C94CC0D0EF4E09506
:1018C000E7FB0C94C60DE92F0E94EE0D58F3BA17F2
:1018D000620773078407950720F079F4A6F50C9446
:1018E000100E0EF4E0950B2EBA2FA02D0B01B901AE
:1018F00090010C01CA01A0011124FF27591B99F086
:10190000593F50F4503E68F11A16F040A22F232F91
:10191000342F4427585FF3CF469537952795A795E1
:10192000F0405395C9F77EF41F16BA0B620B730B88
:10193000840BBAF09150A1F0FF0FBB1F661F771FF9
:10194000881FC2F70EC0BA0F621F731F841F48F4AE
:10195000879577956795B795F7959E3F08F0B0CF37
:101960009395880F08F09927EE0F9795879508951E
:101970000E94A20D08F481E008950E94D10C0C94FD
:10198000DD0D0E94D60D58F00E94CF0D40F029F4D5
:101990005F3F29F00C94C60D51110C94110E0C945C
:1019A000CC0D0E94EE0D68F39923B1F3552391F30A
:1019B000951B550BBB27AA2762177307840738F0BE
:1019C0009F5F5F4F220F331F441FAA1FA9F335D01B
:1019D0000E2E3AF0E0E832D091505040E695001CCF
:1019E000CAF72BD0FE2F29D0660F771F881FBB1F89
:1019F000261737074807AB07B0E809F0BB0B802D67
:101A0000BF01FF2793585F4F3AF09E3F510578F092
:101A10000C94C60D0C94110E5F3FE4F3983ED4F382
:101A2000869577956795B795F7959F5FC9F7880F66
:101A3000911D9695879597F90895E1E0660F771FB8
:101A4000881FBB1F621773078407BA0720F0621B49
:101A5000730B840BBA0BEE1F88F7E09508950E9474
:101A6000360D6894B1110C94110E08950E94F60D74
:101A700088F09F5798F0B92F9927B751B0F0E1F04F
:101A8000660F771F881F991F1AF0BA95C9F714C0FF
:101A9000B13091F00E94100EB1E008950C94100E38
:101AA000672F782F8827B85F39F0B93FCCF3869538
:101AB00077956795B395D9F73EF490958095709595
:101AC00061957F4F8F4F9F4F0895E89409C097FB12
:101AD0003EF490958095709561957F4F8F4F9F4F05
:101AE0009923A9F0F92F96E9BB279395F695879549
:101AF00077956795B795F111F8CFFAF4BB0F11F40C
:101B000060FF1BC06F5F7F4F8F4F9F4F16C08823B2
:101B100011F096E911C0772321F09EE8872F762FE8
:101B200005C0662371F096E8862F70E060E02AF029
:101B30009A95660F771F881FDAF7880F9695879515
:101B400097F90895990F0008550FAA0BE0E8FEEFEA
:101B500016161706E807F907C0F012161306E40771
:101B6000F50798F0621B730B840B950B39F40A266A
:101B700061F0232B242B252B21F408950A2609F448
:101B8000A140A6958FEF811D811D089597F99F674C
:101B900080E870E060E008959FEF80EC08950024F5
:101BA0000A941616170618060906089500240A94C2
:101BB00012161306140605060895092E0394000C48
:101BC00011F4882352F0BB0F40F4BF2B11F460FFD7
:101BD00004C06F5F7F4F8F4F9F4F089557FD905800
:101BE000440F551F59F05F3F71F04795880F97FBE1
:101BF000991F61F09F3F79F087950895121613069B
:101C00001406551FF2CF4695F1DF08C016161706C9
:101C10001806991FF1CF86957105610508940895FE
:101C2000E894BB2766277727CB0197F908950E9490
:101C3000A20D08F48FEF08950E942F0E0C94DD0D75
:101C40000E94CF0D38F00E94D60D20F0952311F0A0
:101C50000C94C60D0C94CC0D11240C94110E0E9402
:101C6000EE0D70F3959FC1F3950F50E0551F629FE5
:101C7000F001729FBB27F00DB11D639FAA27F00DE5
:101C8000B11DAA1F649F6627B00DA11D661F829F0C
:101C90002227B00DA11D621F739FB00DA11D621FF1
:101CA000839FA00D611D221F749F3327A00D611D0E
:101CB000231F849F600D211D822F762F6A2F1124F0
:101CC0009F5750409AF0F1F088234AF0EE0FFF1F23
:101CD000BB1F661F771F881F91505040A9F79E3F7A
:101CE000510580F00C94C60D0C94110E5F3FE4F387
:101CF000983ED4F3869577956795B795F795E795D0
:101D00009F5FC1F7FE2B880F911D9695879597F9D8
:101D10000895DC01CB01FC01F999FECF06C0F2BDAC
:101D2000E1BDF89A319600B40D9241505040B8F799
:101D30000895DC01CB0103C02D910E94A40E4150F7
:101D40005040D0F70895262FF999FECF1FBA92BDC3
:101D500081BD20BD0FB6F894FA9AF99A0FBE01968C
:061D60000895F894FFCF86
:101D66000C01BE00D7004401A000C800FDFF000022
:101D760064003C007D001E00A0001400B4001E009C
:101D8600C8001E00C8000500D2001900EB000A00BA
:101D9600FA000A00FA000400FEFF00003C003C00C6
:101DA600FFFF0000FDFF000064003C0078001E00FD
:101DB6009600280096003C00B9001E00D2001400D0
:101DC600E4000A00E4000300FEFF00003C003C00C3
:101DD600FFFF00000A23436F6D6D616E64730A2373
:101DE600203F20746869732068656C700A23206739
:101DF60020676F20746F2074656D706572617475ED
:101E060072650A2320732073657474696E67730A9A
:101E16002320742063757272656E742074656D700C
:101E2600657261747572650A23206F206F70656E26
:101E360020646F6F720A23206320636C6F736520C2
:101E4600646F6F720A232054207365742074656D65
:101E5600706572617475726520636F6D700A2320F8
:101E660050207365742050494420500A232049208D
:101E76007365742050494420490A23204420736521
:101E8600742050494420440A23204F20736574204F
:101E9600646F6F72206F70656E20706F73697469FE
:101EA6006F6E0A2320432073657420646F6F72205F
:101EB600636C6F73656420706F736974696F6E0A03
:101EC600000A2353657474696E67730A00232074CD
:101ED600656D706572617475726520636F6D703AB9
:101EE60020002320503A20002320493A20002320B6
:101EF600443A20002320646F6F72206F70656E2055
:101F0600706F736974696F6E3A20002320646F6F77
:101F16007220636C6F73656420706F736974696F88
:101F26006E3A20000A23456E7465722073657470DC
:101F36006F696E743A0A000A5374617274696E6747
:101F46000A0074696D652369342C7365706F696E58
:101F5600742366342C74656D706572617475726570
:101F66002366342C6F75747075742369342C696E0E
:101F76007465677261746F722366340A0053746FF6
:101F86007070696E670A000A23446F6F72206F7063
:101F9600656E0A000A23446F6F7220636C6F736567
:101FA600640A000A2343757272656E742074656D47
:101FB60070657261747572653A200023456E7465AA
:101FC600722074656D706572617475726520636FD9
:101FD6006D70656E736174696F6E3A0023456E7439
:101FE60065722050494420502076616C75653A0030
:101FF60023456E7465722050494420492076616CF1
:1020060075653A0023456E74657220504944204434
:102016002076616C75653A0023456E74657220649E
:102026006F6F72206F70656E20706F736974696F61
:102036006E3A0023456E74657220646F6F7220637A
:102046006C6F73656420706F736974696F6E3A00A4
:1020560000000000520A236E6F20737465707320AF
:10206600696E2070726F636573733F0A00236F7029
:10207600656E696E6720646F6F720A0023636C6F0A
:1020860073696E6720646F6F720A00236C617374E4
:10209600207374657020726561636865640A002345
:1020A6004C6561642D667265652070726F66696C39
:1020B600650A00234C65616465642070726F666909
:1020C6006C650A0074696D652369342C74617267E6
:1020D60065742366342C736574706F696E74236639
:1020E600342C74656D70657261747572652366341F
:1020F6002C7069646F75747075742369340A0023D3
:102106004661756C740A00234661756C7420636CB5
:0821160065617265640A0000B6
:00000001FF
